{
  "contractName": "MultiChainBridge",
  "abi": [
    {
      "inputs": [],
      "stateMutability": "nonpayable",
      "type": "constructor"
    },
    {
      "inputs": [
        {
          "internalType": "address",
          "name": "owner",
          "type": "address"
        }
      ],
      "name": "OwnableInvalidOwner",
      "type": "error"
    },
    {
      "inputs": [
        {
          "internalType": "address",
          "name": "account",
          "type": "address"
        }
      ],
      "name": "OwnableUnauthorizedAccount",
      "type": "error"
    },
    {
      "anonymous": false,
      "inputs": [
        {
          "indexed": true,
          "internalType": "address",
          "name": "previousOwner",
          "type": "address"
        },
        {
          "indexed": true,
          "internalType": "address",
          "name": "newOwner",
          "type": "address"
        }
      ],
      "name": "OwnershipTransferred",
      "type": "event"
    },
    {
      "anonymous": false,
      "inputs": [
        {
          "indexed": true,
          "internalType": "address",
          "name": "from",
          "type": "address"
        },
        {
          "indexed": false,
          "internalType": "uint256",
          "name": "amount",
          "type": "uint256"
        },
        {
          "indexed": false,
          "internalType": "uint256",
          "name": "toChainId",
          "type": "uint256"
        },
        {
          "indexed": false,
          "internalType": "bytes32",
          "name": "transactionId",
          "type": "bytes32"
        }
      ],
      "name": "TokensLocked",
      "type": "event"
    },
    {
      "anonymous": false,
      "inputs": [
        {
          "indexed": true,
          "internalType": "address",
          "name": "to",
          "type": "address"
        },
        {
          "indexed": false,
          "internalType": "uint256",
          "name": "amount",
          "type": "uint256"
        },
        {
          "indexed": false,
          "internalType": "uint256",
          "name": "fromChainId",
          "type": "uint256"
        },
        {
          "indexed": false,
          "internalType": "bytes32",
          "name": "transactionId",
          "type": "bytes32"
        }
      ],
      "name": "TokensUnlocked",
      "type": "event"
    },
    {
      "inputs": [
        {
          "internalType": "uint256",
          "name": "",
          "type": "uint256"
        }
      ],
      "name": "chainToToken",
      "outputs": [
        {
          "internalType": "address",
          "name": "",
          "type": "address"
        }
      ],
      "stateMutability": "view",
      "type": "function"
    },
    {
      "inputs": [],
      "name": "owner",
      "outputs": [
        {
          "internalType": "address",
          "name": "",
          "type": "address"
        }
      ],
      "stateMutability": "view",
      "type": "function"
    },
    {
      "inputs": [
        {
          "internalType": "uint256",
          "name": "",
          "type": "uint256"
        },
        {
          "internalType": "bytes32",
          "name": "",
          "type": "bytes32"
        }
      ],
      "name": "processedTransactions",
      "outputs": [
        {
          "internalType": "bool",
          "name": "",
          "type": "bool"
        }
      ],
      "stateMutability": "view",
      "type": "function"
    },
    {
      "inputs": [],
      "name": "renounceOwnership",
      "outputs": [],
      "stateMutability": "nonpayable",
      "type": "function"
    },
    {
      "inputs": [
        {
          "internalType": "address",
          "name": "newOwner",
          "type": "address"
        }
      ],
      "name": "transferOwnership",
      "outputs": [],
      "stateMutability": "nonpayable",
      "type": "function"
    },
    {
      "inputs": [
        {
          "internalType": "uint256",
          "name": "_chainId",
          "type": "uint256"
        },
        {
          "internalType": "address",
          "name": "_tokenAddress",
          "type": "address"
        }
      ],
      "name": "setChainToken",
      "outputs": [],
      "stateMutability": "nonpayable",
      "type": "function"
    },
    {
      "inputs": [
        {
          "internalType": "uint256",
          "name": "_amount",
          "type": "uint256"
        },
        {
          "internalType": "uint256",
          "name": "_toChainId",
          "type": "uint256"
        }
      ],
      "name": "lockTokens",
      "outputs": [],
      "stateMutability": "nonpayable",
      "type": "function"
    },
    {
      "inputs": [
        {
          "internalType": "address",
          "name": "_to",
          "type": "address"
        },
        {
          "internalType": "uint256",
          "name": "_amount",
          "type": "uint256"
        },
        {
          "internalType": "uint256",
          "name": "_fromChainId",
          "type": "uint256"
        },
        {
          "internalType": "bytes32",
          "name": "_transactionId",
          "type": "bytes32"
        }
      ],
      "name": "unlockTokens",
      "outputs": [],
      "stateMutability": "nonpayable",
      "type": "function"
    }
  ],
  "bytecode": "0x608060405234801561000f575f80fd5b50335f73ffffffffffffffffffffffffffffffffffffffff168173ffffffffffffffffffffffffffffffffffffffff1603610081575f6040517f1e4fbdf70000000000000000000000000000000000000000000000000000000081526004016100789190610196565b60405180910390fd5b6100908161009660201b60201c565b506101af565b5f805f9054906101000a900473ffffffffffffffffffffffffffffffffffffffff169050815f806101000a81548173ffffffffffffffffffffffffffffffffffffffff021916908373ffffffffffffffffffffffffffffffffffffffff1602179055508173ffffffffffffffffffffffffffffffffffffffff168173ffffffffffffffffffffffffffffffffffffffff167f8be0079c531659141344cd1fd0a4f28419497f9722a3daafe3b4186f6b6457e060405160405180910390a35050565b5f73ffffffffffffffffffffffffffffffffffffffff82169050919050565b5f61018082610157565b9050919050565b61019081610176565b82525050565b5f6020820190506101a95f830184610187565b92915050565b610f1b806101bc5f395ff3fe608060405234801561000f575f80fd5b5060043610610086575f3560e01c80638f549fc6116100595780638f549fc6146100fe578063acecab971461011a578063b5f65c4d1461014a578063f2fde38b1461016657610086565b806327d246111461008a578063715018a6146100ba57806389158d8e146100c45780638da5cb5b146100e0575b5f80fd5b6100a4600480360381019061009f9190610956565b610182565b6040516100b191906109ae565b60405180910390f35b6100c26101ac565b005b6100de60048036038101906100d991906109c7565b6101bf565b005b6100e86103d5565b6040516100f59190610a44565b60405180910390f35b61011860048036038101906101139190610a87565b6103fc565b005b610134600480360381019061012f9190610aeb565b61068e565b6040516101419190610a44565b60405180910390f35b610164600480360381019061015f9190610b16565b6106be565b005b610180600480360381019061017b9190610b54565b610719565b005b6002602052815f5260405f20602052805f5260405f205f915091509054906101000a900460ff1681565b6101b461079d565b6101bd5f610824565b565b5f73ffffffffffffffffffffffffffffffffffffffff1660015f8381526020019081526020015f205f9054906101000a900473ffffffffffffffffffffffffffffffffffffffff1673ffffffffffffffffffffffffffffffffffffffff160361025d576040517f08c379a000000000000000000000000000000000000000000000000000000000815260040161025490610bd9565b60405180910390fd5b5f60015f4681526020019081526020015f205f9054906101000a900473ffffffffffffffffffffffffffffffffffffffff1690508073ffffffffffffffffffffffffffffffffffffffff166323b872dd3330866040518463ffffffff1660e01b81526004016102ce93929190610c06565b6020604051808303815f875af11580156102ea573d5f803e3d5ffd5b505050506040513d601f19601f8201168201806040525081019061030e9190610c65565b61034d576040517f08c379a000000000000000000000000000000000000000000000000000000000815260040161034490610cda565b60405180910390fd5b5f338484426040516020016103659493929190610d5d565b6040516020818303038152906040528051906020012090503373ffffffffffffffffffffffffffffffffffffffff167f52cd88b11a4be8dbceeb1b717203a1c29fd4399bbb34416d998923a8e8aa65ee8585846040516103c793929190610db9565b60405180910390a250505050565b5f805f9054906101000a900473ffffffffffffffffffffffffffffffffffffffff16905090565b61040461079d565b60025f8381526020019081526020015f205f8281526020019081526020015f205f9054906101000a900460ff1615610471576040517f08c379a000000000000000000000000000000000000000000000000000000000815260040161046890610e38565b60405180910390fd5b5f73ffffffffffffffffffffffffffffffffffffffff1660015f8481526020019081526020015f205f9054906101000a900473ffffffffffffffffffffffffffffffffffffffff1673ffffffffffffffffffffffffffffffffffffffff160361050f576040517f08c379a000000000000000000000000000000000000000000000000000000000815260040161050690610ea0565b60405180910390fd5b5f60015f4681526020019081526020015f205f9054906101000a900473ffffffffffffffffffffffffffffffffffffffff1690508073ffffffffffffffffffffffffffffffffffffffff1663a9059cbb86866040518363ffffffff1660e01b815260040161057e929190610ebe565b6020604051808303815f875af115801561059a573d5f803e3d5ffd5b505050506040513d601f19601f820116820180604052508101906105be9190610c65565b6105fd576040517f08c379a00000000000000000000000000000000000000000000000000000000081526004016105f490610cda565b60405180910390fd5b600160025f8581526020019081526020015f205f8481526020019081526020015f205f6101000a81548160ff0219169083151502179055508473ffffffffffffffffffffffffffffffffffffffff167fbb54e592b9becd845372323a22494e6f588949553e55680a98f67ef0c3110cb785858560405161067f93929190610db9565b60405180910390a25050505050565b6001602052805f5260405f205f915054906101000a900473ffffffffffffffffffffffffffffffffffffffff1681565b6106c661079d565b8060015f8481526020019081526020015f205f6101000a81548173ffffffffffffffffffffffffffffffffffffffff021916908373ffffffffffffffffffffffffffffffffffffffff1602179055505050565b61072161079d565b5f73ffffffffffffffffffffffffffffffffffffffff168173ffffffffffffffffffffffffffffffffffffffff1603610791575f6040517f1e4fbdf70000000000000000000000000000000000000000000000000000000081526004016107889190610a44565b60405180910390fd5b61079a81610824565b50565b6107a56108e5565b73ffffffffffffffffffffffffffffffffffffffff166107c36103d5565b73ffffffffffffffffffffffffffffffffffffffff1614610822576107e66108e5565b6040517f118cdaa70000000000000000000000000000000000000000000000000000000081526004016108199190610a44565b60405180910390fd5b565b5f805f9054906101000a900473ffffffffffffffffffffffffffffffffffffffff169050815f806101000a81548173ffffffffffffffffffffffffffffffffffffffff021916908373ffffffffffffffffffffffffffffffffffffffff1602179055508173ffffffffffffffffffffffffffffffffffffffff168173ffffffffffffffffffffffffffffffffffffffff167f8be0079c531659141344cd1fd0a4f28419497f9722a3daafe3b4186f6b6457e060405160405180910390a35050565b5f33905090565b5f80fd5b5f819050919050565b610902816108f0565b811461090c575f80fd5b50565b5f8135905061091d816108f9565b92915050565b5f819050919050565b61093581610923565b811461093f575f80fd5b50565b5f813590506109508161092c565b92915050565b5f806040838503121561096c5761096b6108ec565b5b5f6109798582860161090f565b925050602061098a85828601610942565b9150509250929050565b5f8115159050919050565b6109a881610994565b82525050565b5f6020820190506109c15f83018461099f565b92915050565b5f80604083850312156109dd576109dc6108ec565b5b5f6109ea8582860161090f565b92505060206109fb8582860161090f565b9150509250929050565b5f73ffffffffffffffffffffffffffffffffffffffff82169050919050565b5f610a2e82610a05565b9050919050565b610a3e81610a24565b82525050565b5f602082019050610a575f830184610a35565b92915050565b610a6681610a24565b8114610a70575f80fd5b50565b5f81359050610a8181610a5d565b92915050565b5f805f8060808587031215610a9f57610a9e6108ec565b5b5f610aac87828801610a73565b9450506020610abd8782880161090f565b9350506040610ace8782880161090f565b9250506060610adf87828801610942565b91505092959194509250565b5f60208284031215610b0057610aff6108ec565b5b5f610b0d8482850161090f565b91505092915050565b5f8060408385031215610b2c57610b2b6108ec565b5b5f610b398582860161090f565b9250506020610b4a85828601610a73565b9150509250929050565b5f60208284031215610b6957610b686108ec565b5b5f610b7684828501610a73565b91505092915050565b5f82825260208201905092915050565b7f44657374696e6174696f6e20636861696e206e6f7420737570706f72746564005f82015250565b5f610bc3601f83610b7f565b9150610bce82610b8f565b602082019050919050565b5f6020820190508181035f830152610bf081610bb7565b9050919050565b610c00816108f0565b82525050565b5f606082019050610c195f830186610a35565b610c266020830185610a35565b610c336040830184610bf7565b949350505050565b610c4481610994565b8114610c4e575f80fd5b50565b5f81519050610c5f81610c3b565b92915050565b5f60208284031215610c7a57610c796108ec565b5b5f610c8784828501610c51565b91505092915050565b7f5472616e73666572206661696c656400000000000000000000000000000000005f82015250565b5f610cc4600f83610b7f565b9150610ccf82610c90565b602082019050919050565b5f6020820190508181035f830152610cf181610cb8565b9050919050565b5f8160601b9050919050565b5f610d0e82610cf8565b9050919050565b5f610d1f82610d04565b9050919050565b610d37610d3282610a24565b610d15565b82525050565b5f819050919050565b610d57610d52826108f0565b610d3d565b82525050565b5f610d688287610d26565b601482019150610d788286610d46565b602082019150610d888285610d46565b602082019150610d988284610d46565b60208201915081905095945050505050565b610db381610923565b82525050565b5f606082019050610dcc5f830186610bf7565b610dd96020830185610bf7565b610de66040830184610daa565b949350505050565b7f5472616e73616374696f6e20616c72656164792070726f6365737365640000005f82015250565b5f610e22601d83610b7f565b9150610e2d82610dee565b602082019050919050565b5f6020820190508181035f830152610e4f81610e16565b9050919050565b7f536f7572636520636861696e206e6f7420737570706f727465640000000000005f82015250565b5f610e8a601a83610b7f565b9150610e9582610e56565b602082019050919050565b5f6020820190508181035f830152610eb781610e7e565b9050919050565b5f604082019050610ed15f830185610a35565b610ede6020830184610bf7565b939250505056fea2646970667358221220e5764c45f275e5fc2df028a6f42430a3c1bf85aea087d8837ca37883cf0bd80b64736f6c63430008150033",
  "immutableReferences": {},
  "source": "// SPDX-License-Identifier: MIT\r\npragma solidity ^0.8.0;\r\n\r\nimport \"@openzeppelin/contracts/token/ERC20/IERC20.sol\";\r\nimport \"@openzeppelin/contracts/access/Ownable.sol\";\r\n\r\ncontract MultiChainBridge is Ownable {\r\n    mapping(uint256 => address) public chainToToken;\r\n    mapping(uint256 => mapping(bytes32 => bool)) public processedTransactions;\r\n\r\n    event TokensLocked(address indexed from, uint256 amount, uint256 toChainId, bytes32 transactionId);\r\n    event TokensUnlocked(address indexed to, uint256 amount, uint256 fromChainId, bytes32 transactionId);\r\n\r\n    constructor() Ownable(msg.sender) {}\r\n\r\n    function setChainToken(uint256 _chainId, address _tokenAddress) public onlyOwner {\r\n        chainToToken[_chainId] = _tokenAddress;\r\n    }\r\n\r\n    function lockTokens(uint256 _amount, uint256 _toChainId) public {\r\n        require(chainToToken[_toChainId] != address(0), \"Destination chain not supported\");\r\n\r\n        IERC20 token = IERC20(chainToToken[block.chainid]);\r\n        require(token.transferFrom(msg.sender, address(this), _amount), \"Transfer failed\");\r\n\r\n        bytes32 transactionId = keccak256(abi.encodePacked(msg.sender, _amount, _toChainId, block.timestamp));\r\n        emit TokensLocked(msg.sender, _amount, _toChainId, transactionId);\r\n    }\r\n\r\n    function unlockTokens(address _to, uint256 _amount, uint256 _fromChainId, bytes32 _transactionId) public onlyOwner {\r\n        require(!processedTransactions[_fromChainId][_transactionId], \"Transaction already processed\");\r\n        require(chainToToken[_fromChainId] != address(0), \"Source chain not supported\");\r\n\r\n        IERC20 token = IERC20(chainToToken[block.chainid]);\r\n        require(token.transfer(_to, _amount), \"Transfer failed\");\r\n\r\n        processedTransactions[_fromChainId][_transactionId] = true;\r\n        emit TokensUnlocked(_to, _amount, _fromChainId, _transactionId);\r\n    }\r\n\r\n    // Additional functions for managing liquidity, fees, etc.\r\n}\r\n",
  "sourcePath": "C:\\Users\\lifea\\OneDrive\\Desktop\\Development\\TokenizedRealEstatePlatform\\blockchain\\contracts\\MultiChainBridge.sol",
  "compiler": {
    "name": "solc",
    "version": "0.8.21+commit.d9974bed.Emscripten.clang"
  },
  "schemaVersion": "3.4.16",
  "updatedAt": "2024-09-03T13:46:18.681Z",
  "devdoc": {
    "errors": {
      "OwnableInvalidOwner(address)": [
        {
          "details": "The owner is not a valid owner account. (eg. `address(0)`)"
        }
      ],
      "OwnableUnauthorizedAccount(address)": [
        {
          "details": "The caller account is not authorized to perform an operation."
        }
      ]
    },
    "kind": "dev",
    "methods": {
      "owner()": {
        "details": "Returns the address of the current owner."
      },
      "renounceOwnership()": {
        "details": "Leaves the contract without owner. It will not be possible to call `onlyOwner` functions. Can only be called by the current owner. NOTE: Renouncing ownership will leave the contract without an owner, thereby disabling any functionality that is only available to the owner."
      },
      "transferOwnership(address)": {
        "details": "Transfers ownership of the contract to a new account (`newOwner`). Can only be called by the current owner."
      }
    },
    "version": 1
  },
  "userdoc": {
    "kind": "user",
    "methods": {},
    "version": 1
  }
}