{
  "contractName": "RealEstateToken",
  "abi": [
    {
      "inputs": [],
      "stateMutability": "nonpayable",
      "type": "constructor"
    },
    {
      "inputs": [
        {
          "internalType": "address",
          "name": "spender",
          "type": "address"
        },
        {
          "internalType": "uint256",
          "name": "allowance",
          "type": "uint256"
        },
        {
          "internalType": "uint256",
          "name": "needed",
          "type": "uint256"
        }
      ],
      "name": "ERC20InsufficientAllowance",
      "type": "error"
    },
    {
      "inputs": [
        {
          "internalType": "address",
          "name": "sender",
          "type": "address"
        },
        {
          "internalType": "uint256",
          "name": "balance",
          "type": "uint256"
        },
        {
          "internalType": "uint256",
          "name": "needed",
          "type": "uint256"
        }
      ],
      "name": "ERC20InsufficientBalance",
      "type": "error"
    },
    {
      "inputs": [
        {
          "internalType": "address",
          "name": "approver",
          "type": "address"
        }
      ],
      "name": "ERC20InvalidApprover",
      "type": "error"
    },
    {
      "inputs": [
        {
          "internalType": "address",
          "name": "receiver",
          "type": "address"
        }
      ],
      "name": "ERC20InvalidReceiver",
      "type": "error"
    },
    {
      "inputs": [
        {
          "internalType": "address",
          "name": "sender",
          "type": "address"
        }
      ],
      "name": "ERC20InvalidSender",
      "type": "error"
    },
    {
      "inputs": [
        {
          "internalType": "address",
          "name": "spender",
          "type": "address"
        }
      ],
      "name": "ERC20InvalidSpender",
      "type": "error"
    },
    {
      "inputs": [
        {
          "internalType": "address",
          "name": "owner",
          "type": "address"
        }
      ],
      "name": "OwnableInvalidOwner",
      "type": "error"
    },
    {
      "inputs": [
        {
          "internalType": "address",
          "name": "account",
          "type": "address"
        }
      ],
      "name": "OwnableUnauthorizedAccount",
      "type": "error"
    },
    {
      "anonymous": false,
      "inputs": [
        {
          "indexed": true,
          "internalType": "address",
          "name": "owner",
          "type": "address"
        },
        {
          "indexed": true,
          "internalType": "address",
          "name": "spender",
          "type": "address"
        },
        {
          "indexed": false,
          "internalType": "uint256",
          "name": "value",
          "type": "uint256"
        }
      ],
      "name": "Approval",
      "type": "event"
    },
    {
      "anonymous": false,
      "inputs": [
        {
          "indexed": true,
          "internalType": "address",
          "name": "previousOwner",
          "type": "address"
        },
        {
          "indexed": true,
          "internalType": "address",
          "name": "newOwner",
          "type": "address"
        }
      ],
      "name": "OwnershipTransferred",
      "type": "event"
    },
    {
      "anonymous": false,
      "inputs": [
        {
          "indexed": true,
          "internalType": "address",
          "name": "from",
          "type": "address"
        },
        {
          "indexed": true,
          "internalType": "address",
          "name": "to",
          "type": "address"
        },
        {
          "indexed": false,
          "internalType": "uint256",
          "name": "value",
          "type": "uint256"
        }
      ],
      "name": "Transfer",
      "type": "event"
    },
    {
      "inputs": [
        {
          "internalType": "address",
          "name": "owner",
          "type": "address"
        },
        {
          "internalType": "address",
          "name": "spender",
          "type": "address"
        }
      ],
      "name": "allowance",
      "outputs": [
        {
          "internalType": "uint256",
          "name": "",
          "type": "uint256"
        }
      ],
      "stateMutability": "view",
      "type": "function"
    },
    {
      "inputs": [
        {
          "internalType": "address",
          "name": "spender",
          "type": "address"
        },
        {
          "internalType": "uint256",
          "name": "value",
          "type": "uint256"
        }
      ],
      "name": "approve",
      "outputs": [
        {
          "internalType": "bool",
          "name": "",
          "type": "bool"
        }
      ],
      "stateMutability": "nonpayable",
      "type": "function"
    },
    {
      "inputs": [
        {
          "internalType": "address",
          "name": "account",
          "type": "address"
        }
      ],
      "name": "balanceOf",
      "outputs": [
        {
          "internalType": "uint256",
          "name": "",
          "type": "uint256"
        }
      ],
      "stateMutability": "view",
      "type": "function"
    },
    {
      "inputs": [],
      "name": "decimals",
      "outputs": [
        {
          "internalType": "uint8",
          "name": "",
          "type": "uint8"
        }
      ],
      "stateMutability": "view",
      "type": "function"
    },
    {
      "inputs": [],
      "name": "name",
      "outputs": [
        {
          "internalType": "string",
          "name": "",
          "type": "string"
        }
      ],
      "stateMutability": "view",
      "type": "function"
    },
    {
      "inputs": [],
      "name": "owner",
      "outputs": [
        {
          "internalType": "address",
          "name": "",
          "type": "address"
        }
      ],
      "stateMutability": "view",
      "type": "function"
    },
    {
      "inputs": [
        {
          "internalType": "string",
          "name": "",
          "type": "string"
        }
      ],
      "name": "properties",
      "outputs": [
        {
          "internalType": "string",
          "name": "id",
          "type": "string"
        },
        {
          "internalType": "string",
          "name": "name",
          "type": "string"
        },
        {
          "internalType": "string",
          "name": "location",
          "type": "string"
        },
        {
          "internalType": "uint256",
          "name": "totalSupply",
          "type": "uint256"
        },
        {
          "internalType": "uint256",
          "name": "price",
          "type": "uint256"
        }
      ],
      "stateMutability": "view",
      "type": "function"
    },
    {
      "inputs": [],
      "name": "renounceOwnership",
      "outputs": [],
      "stateMutability": "nonpayable",
      "type": "function"
    },
    {
      "inputs": [],
      "name": "symbol",
      "outputs": [
        {
          "internalType": "string",
          "name": "",
          "type": "string"
        }
      ],
      "stateMutability": "view",
      "type": "function"
    },
    {
      "inputs": [],
      "name": "totalSupply",
      "outputs": [
        {
          "internalType": "uint256",
          "name": "",
          "type": "uint256"
        }
      ],
      "stateMutability": "view",
      "type": "function"
    },
    {
      "inputs": [
        {
          "internalType": "address",
          "name": "to",
          "type": "address"
        },
        {
          "internalType": "uint256",
          "name": "value",
          "type": "uint256"
        }
      ],
      "name": "transfer",
      "outputs": [
        {
          "internalType": "bool",
          "name": "",
          "type": "bool"
        }
      ],
      "stateMutability": "nonpayable",
      "type": "function"
    },
    {
      "inputs": [
        {
          "internalType": "address",
          "name": "from",
          "type": "address"
        },
        {
          "internalType": "address",
          "name": "to",
          "type": "address"
        },
        {
          "internalType": "uint256",
          "name": "value",
          "type": "uint256"
        }
      ],
      "name": "transferFrom",
      "outputs": [
        {
          "internalType": "bool",
          "name": "",
          "type": "bool"
        }
      ],
      "stateMutability": "nonpayable",
      "type": "function"
    },
    {
      "inputs": [
        {
          "internalType": "address",
          "name": "newOwner",
          "type": "address"
        }
      ],
      "name": "transferOwnership",
      "outputs": [],
      "stateMutability": "nonpayable",
      "type": "function"
    },
    {
      "inputs": [
        {
          "internalType": "address",
          "name": "",
          "type": "address"
        },
        {
          "internalType": "string",
          "name": "",
          "type": "string"
        }
      ],
      "name": "userTokens",
      "outputs": [
        {
          "internalType": "uint256",
          "name": "",
          "type": "uint256"
        }
      ],
      "stateMutability": "view",
      "type": "function"
    },
    {
      "inputs": [
        {
          "internalType": "string",
          "name": "_id",
          "type": "string"
        },
        {
          "internalType": "string",
          "name": "_name",
          "type": "string"
        },
        {
          "internalType": "string",
          "name": "_location",
          "type": "string"
        },
        {
          "internalType": "uint256",
          "name": "_totalSupply",
          "type": "uint256"
        },
        {
          "internalType": "uint256",
          "name": "_price",
          "type": "uint256"
        }
      ],
      "name": "addProperty",
      "outputs": [],
      "stateMutability": "nonpayable",
      "type": "function"
    },
    {
      "inputs": [
        {
          "internalType": "string",
          "name": "_propertyId",
          "type": "string"
        },
        {
          "internalType": "uint256",
          "name": "_amount",
          "type": "uint256"
        }
      ],
      "name": "buyTokens",
      "outputs": [],
      "stateMutability": "nonpayable",
      "type": "function"
    },
    {
      "inputs": [
        {
          "internalType": "string",
          "name": "_propertyId",
          "type": "string"
        },
        {
          "internalType": "uint256",
          "name": "_amount",
          "type": "uint256"
        }
      ],
      "name": "sellTokens",
      "outputs": [],
      "stateMutability": "nonpayable",
      "type": "function"
    }
  ],
  "bytecode": "0x608060405234801562000010575f80fd5b50336040518060400160405280600f81526020017f5265616c457374617465546f6b656e00000000000000000000000000000000008152506040518060400160405280600381526020017f524554000000000000000000000000000000000000000000000000000000000081525081600390816200008f919062000456565b508060049081620000a1919062000456565b5050505f73ffffffffffffffffffffffffffffffffffffffff168173ffffffffffffffffffffffffffffffffffffffff160362000117575f6040517f1e4fbdf70000000000000000000000000000000000000000000000000000000081526004016200010e91906200057d565b60405180910390fd5b62000128816200012f60201b60201c565b5062000598565b5f60055f9054906101000a900473ffffffffffffffffffffffffffffffffffffffff1690508160055f6101000a81548173ffffffffffffffffffffffffffffffffffffffff021916908373ffffffffffffffffffffffffffffffffffffffff1602179055508173ffffffffffffffffffffffffffffffffffffffff168173ffffffffffffffffffffffffffffffffffffffff167f8be0079c531659141344cd1fd0a4f28419497f9722a3daafe3b4186f6b6457e060405160405180910390a35050565b5f81519050919050565b7f4e487b71000000000000000000000000000000000000000000000000000000005f52604160045260245ffd5b7f4e487b71000000000000000000000000000000000000000000000000000000005f52602260045260245ffd5b5f60028204905060018216806200026e57607f821691505b60208210810362000284576200028362000229565b5b50919050565b5f819050815f5260205f209050919050565b5f6020601f8301049050919050565b5f82821b905092915050565b5f60088302620002e87fffffffffffffffffffffffffffffffffffffffffffffffffffffffffffffffff82620002ab565b620002f48683620002ab565b95508019841693508086168417925050509392505050565b5f819050919050565b5f819050919050565b5f6200033e6200033862000332846200030c565b62000315565b6200030c565b9050919050565b5f819050919050565b62000359836200031e565b62000371620003688262000345565b848454620002b7565b825550505050565b5f90565b6200038762000379565b620003948184846200034e565b505050565b5b81811015620003bb57620003af5f826200037d565b6001810190506200039a565b5050565b601f8211156200040a57620003d4816200028a565b620003df846200029c565b81016020851015620003ef578190505b62000407620003fe856200029c565b83018262000399565b50505b505050565b5f82821c905092915050565b5f6200042c5f19846008026200040f565b1980831691505092915050565b5f6200044683836200041b565b9150826002028217905092915050565b6200046182620001f2565b67ffffffffffffffff8111156200047d576200047c620001fc565b5b62000489825462000256565b62000496828285620003bf565b5f60209050601f831160018114620004cc575f8415620004b7578287015190505b620004c3858262000439565b86555062000532565b601f198416620004dc866200028a565b5f5b828110156200050557848901518255600182019150602085019450602081019050620004de565b8683101562000525578489015162000521601f8916826200041b565b8355505b6001600288020188555050505b505050505050565b5f73ffffffffffffffffffffffffffffffffffffffff82169050919050565b5f62000565826200053a565b9050919050565b620005778162000559565b82525050565b5f602082019050620005925f8301846200056c565b92915050565b611fed80620005a65f395ff3fe608060405234801561000f575f80fd5b5060043610610109575f3560e01c8063715018a6116100a05780639be8f2a61161006f5780639be8f2a6146102a5578063a9059cbb146102d9578063dad7ae5a14610309578063dd62ed3e14610325578063f2fde38b1461035557610109565b8063715018a61461022f5780638da5cb5b146102395780639447aeeb1461025757806395d89b411461028757610109565b806323b872dd116100dc57806323b872dd14610195578063313ce567146101c55780635f576c44146101e357806370a08231146101ff57610109565b8063045cfded1461010d57806306fdde0314610129578063095ea7b31461014757806318160ddd14610177575b5f80fd5b61012760048036038101906101229190611527565b610371565b005b610131610489565b60405161013e919061166c565b60405180910390f35b610161600480360381019061015c91906116e6565b610519565b60405161016e919061173e565b60405180910390f35b61017f61053b565b60405161018c9190611766565b60405180910390f35b6101af60048036038101906101aa919061177f565b610544565b6040516101bc919061173e565b60405180910390f35b6101cd610572565b6040516101da91906117ea565b60405180910390f35b6101fd60048036038101906101f89190611803565b61057a565b005b6102196004803603810190610214919061185d565b6106ca565b6040516102269190611766565b60405180910390f35b61023761070f565b005b610241610722565b60405161024e9190611897565b60405180910390f35b610271600480360381019061026c91906118b0565b61074a565b60405161027e9190611766565b60405180910390f35b61028f610782565b60405161029c919061166c565b60405180910390f35b6102bf60048036038101906102ba919061190a565b610812565b6040516102d0959493929190611951565b60405180910390f35b6102f360048036038101906102ee91906116e6565b6109ee565b604051610300919061173e565b60405180910390f35b610323600480360381019061031e9190611803565b610a10565b005b61033f600480360381019061033a91906119b7565b610b55565b60405161034c9190611766565b60405180910390f35b61036f600480360381019061036a919061185d565b610bd7565b005b610379610c5b565b5f60068660405161038a9190611a2f565b908152602001604051809103902060030154146103dc576040517f08c379a00000000000000000000000000000000000000000000000000000000081526004016103d390611a8f565b60405180910390fd5b6040518060a00160405280868152602001858152602001848152602001838152602001828152506006866040516104139190611a2f565b90815260200160405180910390205f820151815f0190816104349190611ca7565b50602082015181600101908161044a9190611ca7565b5060408201518160020190816104609190611ca7565b5060608201518160030155608082015181600401559050506104823083610ce2565b5050505050565b60606003805461049890611ada565b80601f01602080910402602001604051908101604052809291908181526020018280546104c490611ada565b801561050f5780601f106104e65761010080835404028352916020019161050f565b820191905f5260205f20905b8154815290600101906020018083116104f257829003601f168201915b5050505050905090565b5f80610523610d61565b9050610530818585610d68565b600191505092915050565b5f600254905090565b5f8061054e610d61565b905061055b858285610d7a565b610566858585610e0c565b60019150509392505050565b5f6012905090565b8060075f3373ffffffffffffffffffffffffffffffffffffffff1673ffffffffffffffffffffffffffffffffffffffff1681526020019081526020015f20836040516105c69190611a2f565b9081526020016040518091039020541015610616576040517f08c379a000000000000000000000000000000000000000000000000000000000815260040161060d90611dc0565b60405180910390fd5b5f6006836040516106279190611a2f565b908152602001604051809103902090505f8160040154836106489190611e0b565b9050610655333085610e0c565b8260075f3373ffffffffffffffffffffffffffffffffffffffff1673ffffffffffffffffffffffffffffffffffffffff1681526020019081526020015f20856040516106a19190611a2f565b90815260200160405180910390205f8282546106bd9190611e4c565b9250508190555050505050565b5f805f8373ffffffffffffffffffffffffffffffffffffffff1673ffffffffffffffffffffffffffffffffffffffff1681526020019081526020015f20549050919050565b610717610c5b565b6107205f610efc565b565b5f60055f9054906101000a900473ffffffffffffffffffffffffffffffffffffffff16905090565b6007602052815f5260405f20818051602081018201805184825260208301602085012081835280955050505050505f91509150505481565b60606004805461079190611ada565b80601f01602080910402602001604051908101604052809291908181526020018280546107bd90611ada565b80156108085780601f106107df57610100808354040283529160200191610808565b820191905f5260205f20905b8154815290600101906020018083116107eb57829003601f168201915b5050505050905090565b6006818051602081018201805184825260208301602085012081835280955050505050505f91509050805f01805461084990611ada565b80601f016020809104026020016040519081016040528092919081815260200182805461087590611ada565b80156108c05780601f10610897576101008083540402835291602001916108c0565b820191905f5260205f20905b8154815290600101906020018083116108a357829003601f168201915b5050505050908060010180546108d590611ada565b80601f016020809104026020016040519081016040528092919081815260200182805461090190611ada565b801561094c5780601f106109235761010080835404028352916020019161094c565b820191905f5260205f20905b81548152906001019060200180831161092f57829003601f168201915b50505050509080600201805461096190611ada565b80601f016020809104026020016040519081016040528092919081815260200182805461098d90611ada565b80156109d85780601f106109af576101008083540402835291602001916109d8565b820191905f5260205f20905b8154815290600101906020018083116109bb57829003601f168201915b5050505050908060030154908060040154905085565b5f806109f8610d61565b9050610a05818585610e0c565b600191505092915050565b5f600683604051610a219190611a2f565b908152602001604051809103902090505f816003015411610a77576040517f08c379a0000000000000000000000000000000000000000000000000000000008152600401610a6e90611ec9565b60405180910390fd5b81610a81306106ca565b1015610ac2576040517f08c379a0000000000000000000000000000000000000000000000000000000008152600401610ab990611f31565b60405180910390fd5b5f816004015483610ad39190611e0b565b9050610ae0303385610e0c565b8260075f3373ffffffffffffffffffffffffffffffffffffffff1673ffffffffffffffffffffffffffffffffffffffff1681526020019081526020015f2085604051610b2c9190611a2f565b90815260200160405180910390205f828254610b489190611f4f565b9250508190555050505050565b5f60015f8473ffffffffffffffffffffffffffffffffffffffff1673ffffffffffffffffffffffffffffffffffffffff1681526020019081526020015f205f8373ffffffffffffffffffffffffffffffffffffffff1673ffffffffffffffffffffffffffffffffffffffff1681526020019081526020015f2054905092915050565b610bdf610c5b565b5f73ffffffffffffffffffffffffffffffffffffffff168173ffffffffffffffffffffffffffffffffffffffff1603610c4f575f6040517f1e4fbdf7000000000000000000000000000000000000000000000000000000008152600401610c469190611897565b60405180910390fd5b610c5881610efc565b50565b610c63610d61565b73ffffffffffffffffffffffffffffffffffffffff16610c81610722565b73ffffffffffffffffffffffffffffffffffffffff1614610ce057610ca4610d61565b6040517f118cdaa7000000000000000000000000000000000000000000000000000000008152600401610cd79190611897565b60405180910390fd5b565b5f73ffffffffffffffffffffffffffffffffffffffff168273ffffffffffffffffffffffffffffffffffffffff1603610d52575f6040517fec442f05000000000000000000000000000000000000000000000000000000008152600401610d499190611897565b60405180910390fd5b610d5d5f8383610fbf565b5050565b5f33905090565b610d7583838360016111d8565b505050565b5f610d858484610b55565b90507fffffffffffffffffffffffffffffffffffffffffffffffffffffffffffffffff8114610e065781811015610df7578281836040517ffb8f41b2000000000000000000000000000000000000000000000000000000008152600401610dee93929190611f82565b60405180910390fd5b610e0584848484035f6111d8565b5b50505050565b5f73ffffffffffffffffffffffffffffffffffffffff168373ffffffffffffffffffffffffffffffffffffffff1603610e7c575f6040517f96c6fd1e000000000000000000000000000000000000000000000000000000008152600401610e739190611897565b60405180910390fd5b5f73ffffffffffffffffffffffffffffffffffffffff168273ffffffffffffffffffffffffffffffffffffffff1603610eec575f6040517fec442f05000000000000000000000000000000000000000000000000000000008152600401610ee39190611897565b60405180910390fd5b610ef7838383610fbf565b505050565b5f60055f9054906101000a900473ffffffffffffffffffffffffffffffffffffffff1690508160055f6101000a81548173ffffffffffffffffffffffffffffffffffffffff021916908373ffffffffffffffffffffffffffffffffffffffff1602179055508173ffffffffffffffffffffffffffffffffffffffff168173ffffffffffffffffffffffffffffffffffffffff167f8be0079c531659141344cd1fd0a4f28419497f9722a3daafe3b4186f6b6457e060405160405180910390a35050565b5f73ffffffffffffffffffffffffffffffffffffffff168373ffffffffffffffffffffffffffffffffffffffff160361100f578060025f8282546110039190611f4f565b925050819055506110dd565b5f805f8573ffffffffffffffffffffffffffffffffffffffff1673ffffffffffffffffffffffffffffffffffffffff1681526020019081526020015f2054905081811015611098578381836040517fe450d38c00000000000000000000000000000000000000000000000000000000815260040161108f93929190611f82565b60405180910390fd5b8181035f808673ffffffffffffffffffffffffffffffffffffffff1673ffffffffffffffffffffffffffffffffffffffff1681526020019081526020015f2081905550505b5f73ffffffffffffffffffffffffffffffffffffffff168273ffffffffffffffffffffffffffffffffffffffff1603611124578060025f828254039250508190555061116e565b805f808473ffffffffffffffffffffffffffffffffffffffff1673ffffffffffffffffffffffffffffffffffffffff1681526020019081526020015f205f82825401925050819055505b8173ffffffffffffffffffffffffffffffffffffffff168373ffffffffffffffffffffffffffffffffffffffff167fddf252ad1be2c89b69c2b068fc378daa952ba7f163c4a11628f55a4df523b3ef836040516111cb9190611766565b60405180910390a3505050565b5f73ffffffffffffffffffffffffffffffffffffffff168473ffffffffffffffffffffffffffffffffffffffff1603611248575f6040517fe602df0500000000000000000000000000000000000000000000000000000000815260040161123f9190611897565b60405180910390fd5b5f73ffffffffffffffffffffffffffffffffffffffff168373ffffffffffffffffffffffffffffffffffffffff16036112b8575f6040517f94280d620000000000000000000000000000000000000000000000000000000081526004016112af9190611897565b60405180910390fd5b8160015f8673ffffffffffffffffffffffffffffffffffffffff1673ffffffffffffffffffffffffffffffffffffffff1681526020019081526020015f205f8573ffffffffffffffffffffffffffffffffffffffff1673ffffffffffffffffffffffffffffffffffffffff1681526020019081526020015f208190555080156113a1578273ffffffffffffffffffffffffffffffffffffffff168473ffffffffffffffffffffffffffffffffffffffff167f8c5be1e5ebec7d5bd14f71427d1e84f3dd0314c0f7b2291e5b200ac8c7c3b925846040516113989190611766565b60405180910390a35b50505050565b5f604051905090565b5f80fd5b5f80fd5b5f80fd5b5f80fd5b5f601f19601f8301169050919050565b7f4e487b71000000000000000000000000000000000000000000000000000000005f52604160045260245ffd5b611406826113c0565b810181811067ffffffffffffffff82111715611425576114246113d0565b5b80604052505050565b5f6114376113a7565b905061144382826113fd565b919050565b5f67ffffffffffffffff821115611462576114616113d0565b5b61146b826113c0565b9050602081019050919050565b828183375f83830152505050565b5f61149861149384611448565b61142e565b9050828152602081018484840111156114b4576114b36113bc565b5b6114bf848285611478565b509392505050565b5f82601f8301126114db576114da6113b8565b5b81356114eb848260208601611486565b91505092915050565b5f819050919050565b611506816114f4565b8114611510575f80fd5b50565b5f81359050611521816114fd565b92915050565b5f805f805f60a086880312156115405761153f6113b0565b5b5f86013567ffffffffffffffff81111561155d5761155c6113b4565b5b611569888289016114c7565b955050602086013567ffffffffffffffff81111561158a576115896113b4565b5b611596888289016114c7565b945050604086013567ffffffffffffffff8111156115b7576115b66113b4565b5b6115c3888289016114c7565b93505060606115d488828901611513565b92505060806115e588828901611513565b9150509295509295909350565b5f81519050919050565b5f82825260208201905092915050565b5f5b8381101561162957808201518184015260208101905061160e565b5f8484015250505050565b5f61163e826115f2565b61164881856115fc565b935061165881856020860161160c565b611661816113c0565b840191505092915050565b5f6020820190508181035f8301526116848184611634565b905092915050565b5f73ffffffffffffffffffffffffffffffffffffffff82169050919050565b5f6116b58261168c565b9050919050565b6116c5816116ab565b81146116cf575f80fd5b50565b5f813590506116e0816116bc565b92915050565b5f80604083850312156116fc576116fb6113b0565b5b5f611709858286016116d2565b925050602061171a85828601611513565b9150509250929050565b5f8115159050919050565b61173881611724565b82525050565b5f6020820190506117515f83018461172f565b92915050565b611760816114f4565b82525050565b5f6020820190506117795f830184611757565b92915050565b5f805f60608486031215611796576117956113b0565b5b5f6117a3868287016116d2565b93505060206117b4868287016116d2565b92505060406117c586828701611513565b9150509250925092565b5f60ff82169050919050565b6117e4816117cf565b82525050565b5f6020820190506117fd5f8301846117db565b92915050565b5f8060408385031215611819576118186113b0565b5b5f83013567ffffffffffffffff811115611836576118356113b4565b5b611842858286016114c7565b925050602061185385828601611513565b9150509250929050565b5f60208284031215611872576118716113b0565b5b5f61187f848285016116d2565b91505092915050565b611891816116ab565b82525050565b5f6020820190506118aa5f830184611888565b92915050565b5f80604083850312156118c6576118c56113b0565b5b5f6118d3858286016116d2565b925050602083013567ffffffffffffffff8111156118f4576118f36113b4565b5b611900858286016114c7565b9150509250929050565b5f6020828403121561191f5761191e6113b0565b5b5f82013567ffffffffffffffff81111561193c5761193b6113b4565b5b611948848285016114c7565b91505092915050565b5f60a0820190508181035f8301526119698188611634565b9050818103602083015261197d8187611634565b905081810360408301526119918186611634565b90506119a06060830185611757565b6119ad6080830184611757565b9695505050505050565b5f80604083850312156119cd576119cc6113b0565b5b5f6119da858286016116d2565b92505060206119eb858286016116d2565b9150509250929050565b5f81905092915050565b5f611a09826115f2565b611a1381856119f5565b9350611a2381856020860161160c565b80840191505092915050565b5f611a3a82846119ff565b915081905092915050565b7f50726f706572747920616c7265616479206578697374730000000000000000005f82015250565b5f611a796017836115fc565b9150611a8482611a45565b602082019050919050565b5f6020820190508181035f830152611aa681611a6d565b9050919050565b7f4e487b71000000000000000000000000000000000000000000000000000000005f52602260045260245ffd5b5f6002820490506001821680611af157607f821691505b602082108103611b0457611b03611aad565b5b50919050565b5f819050815f5260205f209050919050565b5f6020601f8301049050919050565b5f82821b905092915050565b5f60088302611b667fffffffffffffffffffffffffffffffffffffffffffffffffffffffffffffffff82611b2b565b611b708683611b2b565b95508019841693508086168417925050509392505050565b5f819050919050565b5f611bab611ba6611ba1846114f4565b611b88565b6114f4565b9050919050565b5f819050919050565b611bc483611b91565b611bd8611bd082611bb2565b848454611b37565b825550505050565b5f90565b611bec611be0565b611bf7818484611bbb565b505050565b5b81811015611c1a57611c0f5f82611be4565b600181019050611bfd565b5050565b601f821115611c5f57611c3081611b0a565b611c3984611b1c565b81016020851015611c48578190505b611c5c611c5485611b1c565b830182611bfc565b50505b505050565b5f82821c905092915050565b5f611c7f5f1984600802611c64565b1980831691505092915050565b5f611c978383611c70565b9150826002028217905092915050565b611cb0826115f2565b67ffffffffffffffff811115611cc957611cc86113d0565b5b611cd38254611ada565b611cde828285611c1e565b5f60209050601f831160018114611d0f575f8415611cfd578287015190505b611d078582611c8c565b865550611d6e565b601f198416611d1d86611b0a565b5f5b82811015611d4457848901518255600182019150602085019450602081019050611d1f565b86831015611d615784890151611d5d601f891682611c70565b8355505b6001600288020188555050505b505050505050565b7f4e6f7420656e6f75676820746f6b656e730000000000000000000000000000005f82015250565b5f611daa6011836115fc565b9150611db582611d76565b602082019050919050565b5f6020820190508181035f830152611dd781611d9e565b9050919050565b7f4e487b71000000000000000000000000000000000000000000000000000000005f52601160045260245ffd5b5f611e15826114f4565b9150611e20836114f4565b9250828202611e2e816114f4565b91508282048414831517611e4557611e44611dde565b5b5092915050565b5f611e56826114f4565b9150611e61836114f4565b9250828203905081811115611e7957611e78611dde565b5b92915050565b7f50726f706572747920646f6573206e6f742065786973740000000000000000005f82015250565b5f611eb36017836115fc565b9150611ebe82611e7f565b602082019050919050565b5f6020820190508181035f830152611ee081611ea7565b9050919050565b7f4e6f7420656e6f75676820746f6b656e7320617661696c61626c6500000000005f82015250565b5f611f1b601b836115fc565b9150611f2682611ee7565b602082019050919050565b5f6020820190508181035f830152611f4881611f0f565b9050919050565b5f611f59826114f4565b9150611f64836114f4565b9250828201905080821115611f7c57611f7b611dde565b5b92915050565b5f606082019050611f955f830186611888565b611fa26020830185611757565b611faf6040830184611757565b94935050505056fea26469706673582212200eb381df5262ca4d675d5bc82a87a4956df8db0a16ad4becd2c0794d7ffb99ad64736f6c63430008150033",
  "immutableReferences": {},
  "source": "// SPDX-License-Identifier: MIT\r\npragma solidity ^0.8.0;\r\n\r\nimport \"@openzeppelin/contracts/token/ERC20/ERC20.sol\";\r\nimport \"@openzeppelin/contracts/access/Ownable.sol\";\r\n\r\ncontract RealEstateToken is ERC20, Ownable {\r\n    struct Property {\r\n        string id;\r\n        string name;\r\n        string location;\r\n        uint256 totalSupply;\r\n        uint256 price; // Price per token in USDC\r\n    }\r\n\r\n    mapping(string => Property) public properties;\r\n    mapping(address => mapping(string => uint256)) public userTokens;\r\n\r\n    constructor() ERC20(\"RealEstateToken\", \"RET\") Ownable(msg.sender) {}\r\n\r\n    function addProperty(\r\n        string memory _id,\r\n        string memory _name,\r\n        string memory _location,\r\n        uint256 _totalSupply,\r\n        uint256 _price\r\n    ) public onlyOwner {\r\n        require(properties[_id].totalSupply == 0, \"Property already exists\");\r\n        properties[_id] = Property(_id, _name, _location, _totalSupply, _price);\r\n        _mint(address(this), _totalSupply);\r\n    }\r\n\r\n    function buyTokens(string memory _propertyId, uint256 _amount) public {\r\n        Property storage property = properties[_propertyId];\r\n        require(property.totalSupply > 0, \"Property does not exist\");\r\n        require(balanceOf(address(this)) >= _amount, \"Not enough tokens available\");\r\n\r\n        uint256 cost = _amount * property.price;\r\n        // Transfer USDC from user to contract (implementation needed)\r\n        // transferUSDC(msg.sender, address(this), cost);\r\n\r\n        _transfer(address(this), msg.sender, _amount);\r\n        userTokens[msg.sender][_propertyId] += _amount;\r\n    }\r\n\r\n    function sellTokens(string memory _propertyId, uint256 _amount) public {\r\n        require(userTokens[msg.sender][_propertyId] >= _amount, \"Not enough tokens\");\r\n\r\n        Property storage property = properties[_propertyId];\r\n        uint256 payout = _amount * property.price;\r\n\r\n        _transfer(msg.sender, address(this), _amount);\r\n        userTokens[msg.sender][_propertyId] -= _amount;\r\n\r\n        // Transfer USDC from contract to user (implementation needed)\r\n        // transferUSDC(address(this), msg.sender, payout);\r\n    }\r\n\r\n    // Additional functions for updating property details, withdrawing funds, etc.\r\n}\r\n",
  "sourcePath": "C:\\Users\\lifea\\OneDrive\\Desktop\\Development\\TokenizedRealEstatePlatform\\blockchain\\contracts\\RealEstateToken.sol",
  "compiler": {
    "name": "solc",
    "version": "0.8.21+commit.d9974bed.Emscripten.clang"
  },
  "schemaVersion": "3.4.16",
  "updatedAt": "2024-09-03T13:46:18.691Z",
  "devdoc": {
    "errors": {
      "ERC20InsufficientAllowance(address,uint256,uint256)": [
        {
          "details": "Indicates a failure with the `spender`s `allowance`. Used in transfers.",
          "params": {
            "allowance": "Amount of tokens a `spender` is allowed to operate with.",
            "needed": "Minimum amount required to perform a transfer.",
            "spender": "Address that may be allowed to operate on tokens without being their owner."
          }
        }
      ],
      "ERC20InsufficientBalance(address,uint256,uint256)": [
        {
          "details": "Indicates an error related to the current `balance` of a `sender`. Used in transfers.",
          "params": {
            "balance": "Current balance for the interacting account.",
            "needed": "Minimum amount required to perform a transfer.",
            "sender": "Address whose tokens are being transferred."
          }
        }
      ],
      "ERC20InvalidApprover(address)": [
        {
          "details": "Indicates a failure with the `approver` of a token to be approved. Used in approvals.",
          "params": {
            "approver": "Address initiating an approval operation."
          }
        }
      ],
      "ERC20InvalidReceiver(address)": [
        {
          "details": "Indicates a failure with the token `receiver`. Used in transfers.",
          "params": {
            "receiver": "Address to which tokens are being transferred."
          }
        }
      ],
      "ERC20InvalidSender(address)": [
        {
          "details": "Indicates a failure with the token `sender`. Used in transfers.",
          "params": {
            "sender": "Address whose tokens are being transferred."
          }
        }
      ],
      "ERC20InvalidSpender(address)": [
        {
          "details": "Indicates a failure with the `spender` to be approved. Used in approvals.",
          "params": {
            "spender": "Address that may be allowed to operate on tokens without being their owner."
          }
        }
      ],
      "OwnableInvalidOwner(address)": [
        {
          "details": "The owner is not a valid owner account. (eg. `address(0)`)"
        }
      ],
      "OwnableUnauthorizedAccount(address)": [
        {
          "details": "The caller account is not authorized to perform an operation."
        }
      ]
    },
    "events": {
      "Approval(address,address,uint256)": {
        "details": "Emitted when the allowance of a `spender` for an `owner` is set by a call to {approve}. `value` is the new allowance."
      },
      "Transfer(address,address,uint256)": {
        "details": "Emitted when `value` tokens are moved from one account (`from`) to another (`to`). Note that `value` may be zero."
      }
    },
    "kind": "dev",
    "methods": {
      "allowance(address,address)": {
        "details": "See {IERC20-allowance}."
      },
      "approve(address,uint256)": {
        "details": "See {IERC20-approve}. NOTE: If `value` is the maximum `uint256`, the allowance is not updated on `transferFrom`. This is semantically equivalent to an infinite approval. Requirements: - `spender` cannot be the zero address."
      },
      "balanceOf(address)": {
        "details": "See {IERC20-balanceOf}."
      },
      "decimals()": {
        "details": "Returns the number of decimals used to get its user representation. For example, if `decimals` equals `2`, a balance of `505` tokens should be displayed to a user as `5.05` (`505 / 10 ** 2`). Tokens usually opt for a value of 18, imitating the relationship between Ether and Wei. This is the default value returned by this function, unless it's overridden. NOTE: This information is only used for _display_ purposes: it in no way affects any of the arithmetic of the contract, including {IERC20-balanceOf} and {IERC20-transfer}."
      },
      "name()": {
        "details": "Returns the name of the token."
      },
      "owner()": {
        "details": "Returns the address of the current owner."
      },
      "renounceOwnership()": {
        "details": "Leaves the contract without owner. It will not be possible to call `onlyOwner` functions. Can only be called by the current owner. NOTE: Renouncing ownership will leave the contract without an owner, thereby disabling any functionality that is only available to the owner."
      },
      "symbol()": {
        "details": "Returns the symbol of the token, usually a shorter version of the name."
      },
      "totalSupply()": {
        "details": "See {IERC20-totalSupply}."
      },
      "transfer(address,uint256)": {
        "details": "See {IERC20-transfer}. Requirements: - `to` cannot be the zero address. - the caller must have a balance of at least `value`."
      },
      "transferFrom(address,address,uint256)": {
        "details": "See {IERC20-transferFrom}. Emits an {Approval} event indicating the updated allowance. This is not required by the EIP. See the note at the beginning of {ERC20}. NOTE: Does not update the allowance if the current allowance is the maximum `uint256`. Requirements: - `from` and `to` cannot be the zero address. - `from` must have a balance of at least `value`. - the caller must have allowance for ``from``'s tokens of at least `value`."
      },
      "transferOwnership(address)": {
        "details": "Transfers ownership of the contract to a new account (`newOwner`). Can only be called by the current owner."
      }
    },
    "version": 1
  },
  "userdoc": {
    "kind": "user",
    "methods": {},
    "version": 1
  }
}